{
  "contractName": "Ppd",
  "abi": [
    {
      "inputs": [],
      "payable": false,
      "stateMutability": "nonpayable",
      "type": "constructor"
    },
    {
      "anonymous": false,
      "inputs": [
        {
          "indexed": false,
          "internalType": "address",
          "name": "xBuyer",
          "type": "address"
        },
        {
          "indexed": false,
          "internalType": "string",
          "name": "publicKeyPgp",
          "type": "string"
        }
      ],
      "name": "Payment",
      "type": "event"
    },
    {
      "constant": false,
      "inputs": [],
      "name": "destructor",
      "outputs": [],
      "payable": false,
      "stateMutability": "nonpayable",
      "type": "function"
    },
    {
      "constant": true,
      "inputs": [],
      "name": "GetDeployer",
      "outputs": [
        {
          "internalType": "address",
          "name": "xDeployer",
          "type": "address"
        }
      ],
      "payable": false,
      "stateMutability": "view",
      "type": "function"
    },
    {
      "constant": false,
      "inputs": [],
      "name": "Withdraw",
      "outputs": [],
      "payable": true,
      "stateMutability": "payable",
      "type": "function"
    },
    {
      "constant": false,
      "inputs": [
        {
          "internalType": "string",
          "name": "publicKeyPgp",
          "type": "string"
        }
      ],
      "name": "BuyDigital",
      "outputs": [],
      "payable": true,
      "stateMutability": "payable",
      "type": "function"
    }
  ],
  "bytecode": "0x60806040526103e860025534801561001657600080fd5b50336000806101000a81548173ffffffffffffffffffffffffffffffffffffffff021916908373ffffffffffffffffffffffffffffffffffffffff16021790555061049a806100666000396000f3fe60806040526004361061003f5760003560e01c8063293c4d09146100445780634476d23b1461009b57806357ea89b6146100b257806396b4367a146100bc575b600080fd5b34801561005057600080fd5b50610059610177565b604051808273ffffffffffffffffffffffffffffffffffffffff1673ffffffffffffffffffffffffffffffffffffffff16815260200191505060405180910390f35b3480156100a757600080fd5b506100b06101a0565b005b6100ba61024c565b005b610175600480360360208110156100d257600080fd5b81019080803590602001906401000000008111156100ef57600080fd5b82018360208201111561010157600080fd5b8035906020019184600183028401116401000000008311171561012357600080fd5b91908080601f016020809104026020016040519081016040528093929190818152602001838380828437600081840152601f19601f820116905080830192505050505050509192919290505050610338565b005b60008060009054906101000a900473ffffffffffffffffffffffffffffffffffffffff16905090565b600073ffffffffffffffffffffffffffffffffffffffff163373ffffffffffffffffffffffffffffffffffffffff1614156101da57600080fd5b6000809054906101000a900473ffffffffffffffffffffffffffffffffffffffff1673ffffffffffffffffffffffffffffffffffffffff163373ffffffffffffffffffffffffffffffffffffffff161461023357600080fd5b3373ffffffffffffffffffffffffffffffffffffffff16ff5b600073ffffffffffffffffffffffffffffffffffffffff163373ffffffffffffffffffffffffffffffffffffffff16141561028657600080fd5b6000809054906101000a900473ffffffffffffffffffffffffffffffffffffffff1673ffffffffffffffffffffffffffffffffffffffff163373ffffffffffffffffffffffffffffffffffffffff16146102df57600080fd5b6000600154905060006001819055503373ffffffffffffffffffffffffffffffffffffffff166108fc829081150290604051600060405180830381858888f19350505050158015610334573d6000803e3d6000fd5b5050565b600073ffffffffffffffffffffffffffffffffffffffff163373ffffffffffffffffffffffffffffffffffffffff16141561037257600080fd5b600254341461038057600080fd5b6002546001600082825401925050819055507fd0a1925690043992502b78c66409d5d7489d4a261d3a48e750b9f1cd8b8e8ab63382604051808373ffffffffffffffffffffffffffffffffffffffff1673ffffffffffffffffffffffffffffffffffffffff16815260200180602001828103825283818151815260200191508051906020019080838360005b8381101561042757808201518184015260208101905061040c565b50505050905090810190601f1680156104545780820380516001836020036101000a031916815260200191505b50935050505060405180910390a15056fea265627a7a72315820cd5d111cc0bd8551b3f8382e7ef40aebcd6469dbe4fc15c62c0fab65c05c8cb464736f6c63430005100032",
  "source": "pragma solidity >= 0.5.0;\n\ncontract Ppd {\n  address private s_xDeployer;\n  uint s_amount;\n  uint s_price = 1000;  //wei\n\n  constructor() public {\n    s_xDeployer = msg.sender;\n  }\n  function destructor() public {\n    require(msg.sender != address(0));\n    require(msg.sender == s_xDeployer);\n    selfdestruct(msg.sender);\n  }\n  function GetDeployer() public view returns(address xDeployer){\n    return s_xDeployer;\n  }\n  function Withdraw() public payable {\n    require(msg.sender != address(0));\n    require(msg.sender == s_xDeployer);\n    uint amount = s_amount;\n    s_amount = 0;\n    msg.sender.transfer(amount);\n  }\n  event Payment(address xBuyer,string publicKeyPgp);\n  function BuyDigital(string memory publicKeyPgp) public payable {\n    require(msg.sender != address(0));\n    require(msg.value == s_price);\n    s_amount += s_price;\n    emit Payment(msg.sender,publicKeyPgp);\n  }\n}\n\n",
  "sourcePath": "/home/zombie/dapps/deploy/by_truffle/contracts/Ppd.sol",
  "compiler": {
    "name": "solc",
    "version": "0.5.16+commit.9c3226ce.Emscripten.clang"
  },
  "schemaVersion": "3.1.0",
  "updatedAt": "2020-05-30T10:10:55.661Z",
  "devdoc": {
    "methods": {}
  },
  "userdoc": {
    "methods": {}
  }
}